:100000000C947F000C949C000C949C000C949C001D
:100010000C949C000C949C000C949C000C949C00F0
:100020000C942A030C949C000C949C000C94710476
:100030000C949C000C949C000C949C000C949C00D0
:100040000C949C000C949C000C949C000C949C00C0
:100050000C949C00B204A4049804C004B904AB043A
:100060009E04C704E804F50402050F051C052905D4
:1000700036053F0548055105CE04DB04110611067F
:100080005A0564056E0511061106110611061106C2
:1000900011069D05CC05D605E005EA05F405FE052B
:1000A00008060D0608000000BE922449123EABAAC5
:1000B000AA2ABECDCCCC4C3E00000080BEABAAAA82
:1000C000AA3E00000000BF000000803F00000000CA
:1000D00000084178D3BB4387D1133D190E3CC3BD03
:1000E0004282AD2B3E68EC8276BED98FE1A93E4CB0
:1000F00080EFFFBE01C4FF7F3F000000000011241D
:100100001FBECFE5D4E0DEBFCDBF10E0A0E6B0E07B
:10011000E2E3F2E102C005900D92A037B107D9F7F2
:1001200010E0A0E7B0E001C01D92A739B107E1F7E8
:100130000E9422060C9417090C9400006623E1F03B
:10014000E82FF92F70E02FEF3FEFA8E081E090EA71
:10015000419150E0242735274A2F20FF05C03695CE
:1001600027952827392702C0369527954150A9F7AA
:100170007F5F761768F302C02FEF3FEF822F932F38
:100180000895929AEFE0F7E23197F1F700C000008E
:10019000462F50E04F5F5F4F60E05D9BFECFFC015C
:1001A000E60FF11D20812CB96F5F262F30E0241758
:1001B00035079CF38FE097E20197F1F700C000004C
:1001C00092980895CF93DF93C0E8D0E020EF20937A
:1001D0008000209192002093810080938200909370
:1001E0008300CE0164E00E949E008093840090937F
:1001F0008500CE0165E00E94C100DF91CF91089596
:100200008CB18093880085E090E028E830E0FC0124
:100210003196D901A80FB91F4C91E20FF31F40830B
:1002200001974FEF8F3F940791F780918E00813FA8
:1002300021F580918D00803310F580E090E066E03C
:1002400070E048E850E021E930E0FB01E81BF90BE1
:10025000E40FF51FA081F901E80FF91FA0830196B3
:100260008630910591F781E990E066E00E949E005A
:1002700021E0009729F020E003C020E001C020E049
:10028000822F08956F927F928F929F92AF92BF922A
:10029000CF92DF92EF92FF920F931F9387B9369A16
:1002A0003699FECF64B175B180E090E00E945F079F
:1002B0009B01AC0160E070EC8FE794E40E94CB06F8
:1002C00020E030E040E85FE30E946206562F472FAF
:1002D000382F292F60E070E48CE196E4F32FE22FB1
:1002E000252F342F4F2F5E2F0E94CB060E941A0815
:1002F0007B018C01A80197010E945A08D62EC72EB7
:10030000B82EA92E24EC31EB48EC50E40E945A0898
:100310002AE037E044E454E40E9463063B014C01C8
:10032000C801B70123EC35EF46EF52E40E945A08AA
:100330009B01AC01C401B3010E946206962E872E78
:10034000782E692EC801B7012D2D3C2D4B2D5A2D2D
:100350000E945A082DE53DE645E05EE30E945A08FA
:10036000E62EF72E082F192F292D382D472D562D23
:10037000CA01B9012E2D3F2D402F512F0E94620638
:10038000F62E072F182FE92ED62EC72EB82EA92EFF
:1003900020E030E04FE753E40E941108181664F0A3
:1003A0006F2D702F812F9E2D20E030E0A9010E943B
:1003B000C706882364F00FC0DD24CC240F2EFFE78E
:1003C000BF2EF02D0F2EF3E4AF2EF02D04C0DD2450
:1003D000CC24BB24AA246D2D7C2D8B2D9A2D0E941C
:1003E0003307862F1F910F91FF90EF90DF90CF90F2
:1003F000BF90AF909F908F907F906F900895DF9205
:10040000EF92FF920F931F93D62E87B9369A3699A3
:10041000FECF64B175B180E090E00E945F0720E0FC
:1004200030E048EE51E40E945A087B018C016D2DAA
:1004300070E0882777FD8095982F0E9461079B01C7
:10044000AC01C801B7010E945A0820E030E040E04A
:100450005AE30E945A080E943307862F972F1F9154
:100460000F91FF90EF90DF90089595E020E030E04D
:1004700087B9369A3699FECF44B155B1240F351F4E
:10048000EFECF7E03197F1F700C00000915081F7F1
:10049000C90165E070E00E94F008862F972F08954B
:1004A00080E00E94350290937D0080937C008091D3
:1004B000770090917800009789F180917C0090916D
:1004C0007D0020916C0030916D00821B930B1AF41B
:1004D000909581959F4F8230910504F1809177002E
:1004E000909178008430910588F080917C00909103
:1004F0007D0020918F0030919000821B930B1AF4A5
:10050000909581959F4F8230910544F080917700BE
:100510009091780022E08D3B920770F0C49A10927F
:1005200078001092770080917C0090917D009093EC
:10053000900080938F00089520917C0030917D0081
:1005400080916C0090916D008217930710F4C2980F
:1005500001C0C29A809177009091780022E08D3B93
:10056000920748F4809177009091780001969093DB
:10057000780080937700C498089587E00E94350240
:1005800090938700809386008091790090917A0003
:10059000009789F1809186009091870020916E00EC
:1005A00030916F00821B930B1AF4909581959F4FA9
:1005B0008230910504F18091790090917A00853024
:1005C000910588F0809186009091870020917E00AF
:1005D00030917F00821B930B1AF4909581959F4F69
:1005E0008230910544F08091790090917A0022E068
:1005F0008D3B920770F0AF9A10927A0010927900BA
:10060000809186009091870090937F0080937E0078
:100610000895209186003091870080916E0090911E
:100620006F008217930710F4AE9801C0AE9A8091C4
:10063000790090917A0022E08D3B920748F48091F6
:10064000790090917A00019690937A0080937900D6
:10065000AF9808951F920F920FB60F9211242F9307
:100660003F934F935F936F937F938F939F93AF933A
:10067000BF93EF93FF930E9450020E94BD028091AE
:1006800070008F5F8093700080917000823009F459
:1006900079C0833020F4813009F0FAC007C083307C
:1006A00009F4DCC0843109F0F3C0EFC082E00E949D
:1006B000420180936000209161008091600030E0F1
:1006C000281B31098FEF2C3E380714F42CEE3FEF36
:1006D0002531310514F024E130E040916300E091D0
:1006E000730050E0249FC001259F900D349F900D12
:1006F00011246AE070E00E940409E60FED3324F053
:100700008CE38093730007C01E161CF4E093730003
:1007100002C010927300E091620060916400409109
:10072000650050917300F0E02E9FC0012F9F900D47
:100730003E9F900D1124850F911D552747FD509523
:10074000F901E41BF50B70E0E69FA001E79F500D57
:10075000F69F500D1124840F951F90937200809383
:100760007100209365008091710090917200833038
:10077000910534F080917B00882311F4C19AA0C0C8
:10078000C1989EC085E00E9442018093660020913E
:1007900067008091660030E0281B31098FEF2C3E06
:1007A000380714F42CEE3FEF2531310514F024E125
:1007B00030E040916900E091760050E0249FC00154
:1007C000259F900D349F900D11246AE070E00E94E7
:1007D0000409E60FED3324F08CE38093760007C024
:1007E0001E161CF4E093760002C010927600E09191
:1007F000680060916A0040916B0050917600F0E0D3
:100800002E9FC0012F9F900D3E9F900D1124850FAC
:10081000911D552747FD5095F901E41BF50B70E03C
:10082000E69FA001E79F500DF69F500D1124840F05
:10083000951F909375008093740020936B008091B6
:100840007400909175008330910534F080917B00A5
:10085000882311F4C09A34C0C09832C080916000DF
:10086000803A78F480916600803A58F48091600074
:10087000882339F080916600882319F010927B005C
:100880001FC081E080937B001BC01092700018C0D5
:1008900020917000809171009091720030E0821779
:1008A00093070CF4C198209170008091740090918E
:1008B000750030E02F5F3F4F821793070CF4C0980C
:1008C000FF91EF91BF91AF919F918F917F916F9128
:1008D0005F914F913F912F910F900FBE0F901F90FE
:1008E00018951F920F920FB60F9211242F933F93DA
:1008F0004F935F936F937F938F939F93AF93BF9328
:10090000EF93FF930E940001882309F48AC180912C
:10091000920090E001978832910508F082C1865DCF
:100920009F4FFC01EE0FFF1F0590F491E02D0994FD
:100930008091600090E00E94E20073C180916600A7
:1009400090E00E94E2006DC181E06CE30E94FF0133
:100950000E94E20066C186E06CE30E94FF010E94F3
:10096000E2005FC180917C0090917D000E94E200D6
:1009700058C180918600909187000E94E20051C189
:1009800083E00E94420190E00E94E2004AC184E0BC
:100990000E94420190E00E94E20043C180919300D6
:1009A000882311F0939A01C093988091930090E06E
:1009B0000E94E20036C180919300882311F0A89A2A
:1009C00001C0A8988091930090E00E94E20029C1A4
:1009D00080919300882311F0A99A01C0A998809171
:1009E000930090E00E94E2001CC180919300882354
:1009F00011F0AA9A01C0AA988091930090E00E94F9
:100A0000E2000FC180919300882311F0949A01C0F5
:100A100094988091930090E00E94E20002C180913E
:100A20009300882311F0959A01C0959880919300C6
:100A300090E00E94E200F5C080919300882311F0BD
:100A4000979A01C097988091930090E00E94E200ED
:100A5000E8C080919300882311F0969A01C096987F
:100A60008091930090E00E94E200DBC083B390E0AD
:100A700080959095807190700E94E200D2C083B3FF
:100A800090E080959095807290700E94E200C9C0BD
:100A900086B390E080959095807290700E94E200FD
:100AA000C0C086B390E080959095807490700E944D
:100AB000E200B7C080919300809361008091610053
:100AC00090E00E94E200ADC08091930080936700A7
:100AD0008091670090E00E94E200A3C02091930003
:100AE00030919400932F80E0820F911D90936D00C0
:100AF00080936C0080916C0090916D00F2E08935DC
:100B00009F0730F088E592E090936D0080936C0031
:100B100081E090E0909378008093770080917C0052
:100B200090917D009093900080938F0080916C0055
:100B300090916D000E94E20074C02091930030916A
:100B40009400932F80E0820F911D90936F0080930B
:100B50006E0080916E0090916F0022E089359207BF
:100B600030F088E592E090936F0080936E0081E012
:100B700090E090937A008093790080918600909124
:100B8000870090937F0080937E0080916E0090910B
:100B90006F000E94E20045C0809193008093620044
:100BA0008091620090E00E94E2003BC0809193003F
:100BB000809363008091630090E00E94E20031C066
:100BC00080919300809364008091640090E00E9483
:100BD000E20027C0809193008093680080916800B4
:100BE00090E00E94E2001DC0809193008093690014
:100BF0008091690090E00E94E20013C08091930010
:100C000080936A0080916A0090E00E94E20009C02F
:100C100084EA90E00E94E20004C080E190E00E943B
:100C2000E200FF91EF91BF91AF919F918F917F91E2
:100C30006F915F914F913F912F910F900FBE0F9049
:100C40001F9018958FE987BB8FEC84BB8CEF81BB1D
:100C5000C49AAF9A87E886B989E189B988E98AB9DF
:100C600086E880BD84E089BF1DBC1CBC82E08EBDCF
:100C70008CE183BF8DE78CBF80E00E9435029093AA
:100C80007D0080937C0080E00E94350290937D007F
:100C900080937C0080917C0090917D0090936D000A
:100CA00080936C00809186009091870090936F00F4
:100CB00080936E0078948FEC97E00197F1F700C075
:100CC0000000F9CF5058BB27AA270ED070C161D1C0
:100CD00030F066D120F031F49F3F11F41EF456C17C
:100CE0000EF4E095E7FB4CC1E92F72D180F3BA17FF
:100CF000620773078407950718F071F49EF58AC19F
:100D00000EF4E0950B2EBA2FA02D0B01B901900126
:100D10000C01CA01A0011124FF27591B99F0593F6A
:100D200050F4503E68F11A16F040A22F232F342FB2
:100D30004427585FF3CF469537952795A795F04000
:100D40005395C9F77EF41F16BA0B620B730B840B15
:100D5000BAF09150A1F0FF0FBB1F661F771F881FCD
:100D6000C2F70EC0BA0F621F731F841F48F4879525
:100D700077956795B795F7959E3F08F0B3CF939514
:100D8000880F08F09927EE0F979587950895D4D08E
:100D900008F481E008950CD00AC102D140F0F9D0E6
:100DA00030F021F45F3F19F0EBC0511134C1EEC0B7
:100DB0000FD198F39923C9F35523B1F3951B550B24
:100DC000BB27AA2762177307840738F09F5F5F4F1E
:100DD000220F331F441FAA1FA9F333D00E2E3AF05F
:100DE000E0E830D091505040E695001CCAF729D079
:100DF000FE2F27D0660F771F881FBB1F26173707C8
:100E00004807AB07B0E809F0BB0B802DBF01FF27F7
:100E100093585F4F2AF09E3F510568F0B1C0FBC068
:100E20005F3FECF3983EDCF3869577956795B79531
:100E3000F7959F5FC9F7880F911D9695879597F94C
:100E40000895E1E0660F771F881FBB1F62177307C5
:100E50008407BA0720F0621B730B840BBA0BEE1FDA
:100E600088F7E0950895BCD088F09F5790F0B92F8F
:100E70009927B751A0F0D1F0660F771F881F991FEF
:100E80001AF0BA95C9F712C0B13081F0C3D0B1E001
:100E90000895C0C0672F782F8827B85F39F0B93F11
:100EA000CCF3869577956795B395D9F73EF49095F1
:100EB0008095709561957F4F8F4F9F4F0895E8946F
:100EC00009C097FB3EF490958095709561957F4F92
:100ED0008F4F9F4F9923A9F0F92F96E9BB27939540
:100EE000F695879577956795B795F111F8CFFAF450
:100EF000BB0F11F460FF1BC06F5F7F4F8F4F9F4F81
:100F000016C0882311F096E911C0772321F09EE8DE
:100F1000872F762F05C0662371F096E8862F70E044
:100F200060E02AF09A95660F771F881FDAF7880F1E
:100F30009695879597F90895990F0008550FAA0B74
:100F4000E0E8FEEF16161706E807F907C0F01216DC
:100F50001306E407F50798F0621B730B840B950BDF
:100F600039F40A2661F0232B242B252B21F4089534
:100F70000A2609F4A140A6958FEF811D811D0895D1
:100F800097F99F6780E870E060E008959FEF80EC3C
:100F9000089500240A9416161706180609060895DF
:100FA00000240A9412161306140605060895092E45
:100FB0000394000C11F4882352F0BB0F40F4BF2BB4
:100FC00011F460FF04C06F5F7F4F8F4F9F4F0895F4
:100FD00057FD9058440F551F59F05F3F71F04795EA
:100FE000880F97FB991F61F09F3F79F087950895CF
:100FF000121613061406551FF2CF4695F1DF08C0EE
:10100000161617061806991FF1CF8695710561050A
:1010100008940895E894BB2766277727CB0197F9B2
:1010200008958ADF08F48FEF08950EF0A6C0AECFC2
:101030006894A6CFD5DFC8F39923D1F3C6F3DF9325
:10104000CF931F930F93FF92C92FDD2788232AF098
:101050002197660F771F881FDAF720E030E040E81D
:101060005FEB9FE3883920F0803E30F021968F7748
:101070002ADEE4EAF0E003C026DEE1EDF0E08BD00A
:101080008B01BE01EC01FB2E6F5771097595771F1F
:10109000880B990B16DF28E132E741E35FE316D0B6
:1010A000AF2D9801AE01FF900F911F91CF91DF916D
:1010B0001BDE7DCF0BD07BCF6CDF28F071DF18F00B
:1010C000952309F05DCF62CF1124A5CF81DFA0F376
:1010D000959FD1F3950F50E0551F629FF001729FCD
:1010E000BB27F00DB11D639FAA27F00DB11DAA1FEC
:1010F000649F6627B00DA11D661F829F2227B00D39
:10110000A11D621F739FB00DA11D621F839FA00DC3
:10111000611D221F749F3327A00D611D231F849F13
:10112000600D211D822F762F6A2F11249F5750406A
:101130008AF0E1F088234AF0EE0FFF1FBB1F661F05
:10114000771F881F91505040A9F79E3F510570F0BE
:1011500017CF61CF5F3FECF3983EDCF38695779530
:101160006795B795F795E7959F5FC1F7FE2B880FB9
:10117000911D9695879597F908959F3F31F091506D
:1011800020F4879577956795B795880F911D96956B
:10119000879597F90895DF93CF931F930F93FF924D
:1011A000EF92DF927B018C01689405C0DA2EEF018B
:1011B0008DDFFE01E894A5912591359145915591DA
:1011C000AEF3EF0191DDFE019701A801DA9479F702
:1011D000DF90EF90FF900F911F91CF91DF910895D5
:1011E000AA1BBB1B51E107C0AA1FBB1FA617B7074D
:1011F00010F0A61BB70B881F991F5A95A9F7809569
:101200009095BC01CD01089597FB092E07260AD0C1
:1012100077FD04D0E5DF06D000201AF470956195C3
:101220007F4F0895F6F7909581959F4F0895F89414
:02123000FFCFEE
:101232005A5A050202465A5A0A0105460A000A008B
:00000001FF
