:100000000C947F000C949C000C949C000C949C001D
:100010000C949C000C949C000C949C000C949C00F0
:100020000C9416030C949C000C949C000C945F049C
:100030000C949C000C949C000C949C000C949C00D0
:100040000C949C000C949C000C949C000C949C00C0
:100050000C949C00A00492048604AE04A7049904A6
:100060008C04B504D604E304F004FD040A05170566
:1000700024052D0536053F05BC04C904FF05FF0511
:10008000480552055C05FF05FF05FF05FF05FF0557
:10009000FF058B05BA05C405CE05D805E205EC05BC
:1000A000F605FB0508000000BE922449123EABAAEB
:1000B000AA2ABECDCCCC4C3E00000080BEABAAAA82
:1000C000AA3E00000000BF000000803F00000000CA
:1000D00000084178D3BB4387D1133D190E3CC3BD03
:1000E0004282AD2B3E68EC8276BED98FE1A93E4CB0
:1000F00080EFFFBE01C4FF7F3F000000000011241D
:100100001FBECFE5D4E0DEBFCDBF10E0A0E6B0E07B
:10011000EEE0F2E102C005900D92A037B107D9F7E9
:1001200010E0A0E7B0E001C01D92A739B107E1F7E8
:100130000E9410060C9405090C9400006623E1F05F
:10014000E82FF92F70E08FEF9FEFA8E041E050EA31
:10015000219130E0822793272A2F80FF05C09695B2
:1001600087958427952702C0969587952150A9F7F2
:100170007F5F761769F708958FEF9FEF0895929A42
:10018000EFE0F7E23197F1F700C00000262F30E0F2
:100190002F5F3F4F60E05D9BFECFFC01E60FF11D3E
:1001A00040814CB96F5F462F50E0421753079CF3D4
:1001B0008FE097E20197F1F700C000009298089550
:1001C000CF93DF93C0E8D0E020EF20938000209110
:1001D0009200209381008093820090938300CE014F
:1001E00064E00E949E008093840090938500CE017D
:1001F00065E00E94BF00DF91CF9108958CB180939C
:10020000880085E090E048E850E09C012F5F3F4F78
:10021000FA01E80FF91F6081240F351FF90160838F
:100220000197FFEF8F3F9F0781F780918E00813FFD
:1002300021F580918D00803310F580E090E026E07C
:1002400030E048E850E061E970E0F901E81BF90BA3
:10025000E40FF51FA081FB01E80FF91FA0830196B1
:100260008630910591F781E990E066E00E949E005A
:1002700021E0009729F020E003C020E001C020E049
:10028000822F08958F929F92AF92BF92CF92DF926A
:10029000EF92FF920F931F93CF93DF9387B9369A14
:1002A0003699FECF64B175B180E090E00E944D07B1
:1002B0009B01AC0160E070EC8FE794E40E94B9060A
:1002C00020E030E040E85FE30E945006B62FA72F01
:1002D000382F292F60E070E48CE196E4422F0B2F39
:1002E0001A2F232F342FA90198010E94B906462FF7
:1002F000572F682F792FCB01BA010E9408086B0194
:100300007C01A70196010E944808C62FD72F182FFD
:10031000092F862F9D2FA12FB02FBC01CD0124ECDA
:1003200031EB48EC50E40E9448082AE037E044E40E
:1003300054E40E9451064B015C01C701B60123EC55
:1003400035EF46EF52E40E9448089B01AC01C5011D
:10035000B4010E945006B62EA72E882E992EC701F2
:10036000B601512F402F0C2F1D2F252F342FA901FF
:1003700098010E9448082DE53DE645E05EE30E94B5
:100380004808B62FA72F382F292F4B2D5A2D682D0F
:10039000792DCB01BA01422F0B2F1A2F232F342F87
:1003A000A90198010E945006162FD72FC82EC92FD9
:1003B000F62E072FE82ED92E862F9D2FAC2DBC2F81
:1003C000BC01CD0120E030E04FE753E40E94FF077D
:1003D000181674F0812F9D2FAC2DBC2FBC01CD01C0
:1003E00020E030E0A9010E94B506882364F00FC028
:1003F000FF2400E00F2EFFE7EF2EF02D0F2EF3E489
:10040000DF2EF02D04C0FF2400E0EE24DD248F2D2C
:10041000902FAE2DBD2DBC01CD010E942107862F4E
:10042000DF91CF911F910F91FF90EF90DF90CF90D0
:10043000BF90AF909F908F900895CF92DF92EF92F0
:10044000FF92CF93C62F87B9369A3699FECF64B103
:1004500075B180E090E00E944D0720E030E048EE6A
:1004600051E40E9448086B017C016C2F70E080E031
:1004700090E00E944F079B01AC01C701B6010E94AA
:10048000480820E030E040E05AE30E9448080E941B
:100490002107862F972FCF91FF90EF90DF90CF907D
:1004A000089595E020E030E087B9369A3699FECF7E
:1004B00044B155B1240F351FEFECF7E03197F1F758
:1004C00000C00000915081F7C90165E070E00E9412
:1004D000DE08862F972F089580E00E9451029093A6
:1004E0007D0080937C008091730090917400009750
:1004F00099F020917C0030917D0080916200909174
:1005000063002817390741F08091730090917400BF
:1005100022E08D3B920770F0C49A10927400109202
:10052000730080917C0090917D0090939000809367
:100530008F000895C4988FEC97E00197F1F700C001
:10054000000020917C0030917D00809162009091AC
:1005500063008217930710F4C29801C0C29A809179
:1005600073009091740022E08D3B920748F48091D3
:1005700073009091740001969093740080937300BF
:10058000089587E00E94510290938700809386002F
:100590008091710090917200009799F020918600EF
:1005A0003091870080916000909161002817390791
:1005B00041F0809171009091720022E08D3B920792
:1005C00070F0AF9A109272001092710080918600C4
:1005D0009091870090937F0080937E000895AF985C
:1005E0008FEC97E00197F1F700C0000020918600A2
:1005F000309187008091600090916100821793078D
:1006000010F4AE9801C0AE9A809171009091720082
:1006100022E08D3B920748F4809171009091720026
:100620000196909372008093710008951F920F922B
:100630000FB60F9211242F933F934F935F936F93B5
:100640007F938F939F93AF93BF93EF93FF930E94FA
:100650006C020E94C10280917B008F5F80937B00BF
:1006600080917B00823009F47AC0833020F481309D
:1006700009F0FCC007C0833009F4DEC0843109F002
:10068000F5C0F1C082E00E94420180936F00E091CA
:100690006E0080916F00F0E0E81BF1092FEFEC3E57
:1006A000F20714F4ECEEFFEFE531F10514F0E4E1AC
:1006B000F0E020916C004091780030E02E9FC00166
:1006C0002F9F900D3E9F900D11246AE070E00E94D4
:1006D000F208460F4D3324F08CE38093780007C076
:1006E00014161CF44093780002C0109278002091F8
:1006F0006D0040916B0080916A006091780030E05D
:100700002E9FD0012F9FB00D3E9FB00D112450E0C1
:10071000992787FD90959F01281B390BC901489F98
:100720009001499F300D589F300D11242A0F3B1F17
:10073000260F311D30937A0020937900E0936A00F0
:100740008091790090917A008330910534F0809106
:100750007000882311F4C19AA1C0C1989FC085E0A0
:100760000E94420180936900E091680080916900D5
:10077000F0E0E81BF1093FEFEC3EF30714F4ECEE78
:10078000FFEFE531F10514F0E4E1F0E020916600BF
:100790004091750030E0E29FC001E39F900DF29F11
:1007A000900D11246AE070E00E94F208460F4D336C
:1007B00024F08CE38093750007C014161CF440935A
:1007C000750002C01092750020916700409165008D
:1007D000809164006091750030E0E29FD001E39F5A
:1007E000B00DF29FB00D112450E0992787FD909530
:1007F0009F01281B390BC901489F9001499F300D6B
:10080000589F300D11242A0F3B1F260F311D3093A6
:10081000770020937600E0936400809176009091B9
:1008200077008330910534F080917000882311F4B3
:10083000C09A34C0C09832C080916F00803A78F47A
:1008400080916900803A58F480916F00882339F0D4
:1008500080916900882319F0109270001FC081E018
:10086000809370001BC010927B0018C020917B0009
:100870008091790090917A0030E0821793070CF410
:10088000C19820917B00809176009091770030E0B4
:100890002F5F3F4F821793070CF4C098FF91EF91A1
:1008A000BF91AF919F918F917F916F915F914F9188
:1008B0003F912F910F900FBE0F901F9018951F9290
:1008C0000F920FB60F9211242F933F934F935F9384
:1008D0006F937F938F939F93AF93BF93EF93FF9308
:1008E0000E94FE00882309F48AC18091920090E062
:1008F00001978832910508F082C1865D9F4FFC0107
:10090000EE0FFF1F0590F491E02D099480916F0088
:1009100090E00E94E00073C18091690090E00E9425
:10092000E0006DC181E06CE30E941D020E94E000C6
:1009300066C186E06CE30E941D020E94E0005FC178
:1009400080917C0090917D000E94E00058C18091D0
:100950008600909187000E94E00051C183E00E94D0
:10096000420190E00E94E0004AC184E00E944201FE
:1009700090E00E94E00043C180919300882311F031
:10098000939A01C093988091930090E00E94E000B8
:1009900036C180919300882311F0A89A01C0A898CD
:1009A0008091930090E00E94E00029C18091930023
:1009B000882311F0A99A01C0A9988091930090E032
:1009C0000E94E0001CC180919300882311F0AA9A34
:1009D00001C0AA988091930090E00E94E0000FC1AE
:1009E00080919300882311F0949A01C0949880918B
:1009F000930090E00E94E00002C180919300882360
:100A000011F0959A01C095988091930090E00E9412
:100A1000E000F5C080919300882311F0979A01C0FF
:100A200097988091930090E00E94E000E8C0809148
:100A30009300882311F0969A01C0969880919300B4
:100A400090E00E94E000DBC083B390E08095909539
:100A5000807190700E94E000D2C083B390E08095D6
:100A60009095807290700E94E000C9C086B390E0BB
:100A700080959095807290700E94E000C0C086B30F
:100A800090E080959095807490700E94E000B7C0CF
:100A90008091930080936E0080916E0090E00E94A0
:100AA000E000ADC080919300809368008091680061
:100AB00090E00E94E000A3C0209193003091940048
:100AC000932F80E0820F911D9093630080936200CA
:100AD0008091620090916300F2E089359F0730F0C9
:100AE00088E592E0909363008093620081E090E05B
:100AF000909374008093730080917C0090917D00AE
:100B00009093900080938F00809162009091630099
:100B10000E94E00074C02091930030919400932FC4
:100B200080E0820F911D909361008093600080911E
:100B300060009091610022E08935920730F088E5ED
:100B400092E0909361008093600081E090E0909348
:100B5000720080937100809186009091870090933D
:100B60007F0080937E0080916000909161000E94E0
:100B7000E00045C08091930080936D0080916D00EE
:100B800090E00E94E0003BC08091930080936C0055
:100B900080916C0090E00E94E00031C08091930051
:100BA00080936B0080916B0090E00E94E00027C072
:100BB00080919300809367008091670090E00E948D
:100BC000E0001DC0809193008093660080916600D4
:100BD00090E00E94E00013C0809193008093650034
:100BE0008091650090E00E94E00009C084EA90E0F6
:100BF0000E94E00004C080E190E00E94E000FF91CC
:100C0000EF91BF91AF919F918F917F916F915F9184
:100C10004F913F912F910F900FBE0F901F901895FD
:100C20008FE987BB8FEC84BB8CEF81BBC49AAF9AF2
:100C300087E886B989E189B988E98AB986E880BDFB
:100C400084E089BF1DBC1CBC82E08EBD8CE183BFEB
:100C50008DE78CBF80E00E94510290937D008093CD
:100C60007C0080E00E94510290937D0080937C0084
:100C700080917C0090917D0090936300809362004E
:100C8000809186009091870090936100809360002E
:100C900078948FEC97E00197F1F700C00000F9CF4E
:100CA0005058BB27AA270ED070C161D130F066D151
:100CB00020F031F49F3F11F41EF456C10EF4E0957C
:100CC000E7FB4CC1E92F72D180F3BA1762077307B3
:100CD0008407950718F071F49EF58AC10EF4E0952B
:100CE0000B2EBA2FA02D0B01B90190010C01CA01E6
:100CF000A0011124FF27591B99F0593F50F4503E91
:100D000068F11A16F040A22F232F342F4427585F82
:100D1000F3CF469537952795A795F0405395C9F79A
:100D20007EF41F16BA0B620B730B840BBAF0915052
:100D3000A1F0FF0FBB1F661F771F881FC2F70EC0F1
:100D4000BA0F621F731F841F48F4879577956795C4
:100D5000B795F7959E3F08F0B3CF9395880F08F0AD
:100D60009927EE0F979587950895D4D008F481E0E0
:100D700008950CD00AC102D140F0F9D030F021F42E
:100D80005F3F19F0EBC0511134C1EEC00FD198F3A1
:100D90009923C9F35523B1F3951B550BBB27AA27FC
:100DA00062177307840738F09F5F5F4F220F331F6E
:100DB000441FAA1FA9F333D00E2E3AF0E0E830D03A
:100DC00091505040E695001CCAF729D0FE2F27D03D
:100DD000660F771F881FBB1F261737074807AB070B
:100DE000B0E809F0BB0B802DBF01FF2793585F4F80
:100DF0002AF09E3F510568F0B1C0FBC05F3FECF3A5
:100E0000983EDCF3869577956795B795F7959F5F44
:100E1000C9F7880F911D9695879597F90895E1E098
:100E2000660F771F881FBB1F621773078407BA07F7
:100E300020F0621B730B840BBA0BEE1F88F7E09552
:100E40000895BCD088F09F5790F0B92F9927B751DB
:100E5000A0F0D1F0660F771F881F991F1AF0BA957E
:100E6000C9F712C0B13081F0C3D0B1E00895C0C05D
:100E7000672F782F8827B85F39F0B93FCCF3869574
:100E800077956795B395D9F73EF4909580957095D1
:100E900061957F4F8F4F9F4F0895E89409C097FB4E
:100EA0003EF490958095709561957F4F8F4F9F4F41
:100EB0009923A9F0F92F96E9BB279395F695879585
:100EC00077956795B795F111F8CFFAF4BB0F11F448
:100ED00060FF1BC06F5F7F4F8F4F9F4F16C08823EF
:100EE00011F096E911C0772321F09EE8872F762F25
:100EF00005C0662371F096E8862F70E060E02AF066
:100F00009A95660F771F881FDAF7880F9695879551
:100F100097F90895990F0008550FAA0BE0E8FEEF26
:100F200016161706E807F907C0F012161306E407AD
:100F3000F50798F0621B730B840B950B39F40A26A6
:100F400061F0232B242B252B21F408950A2609F484
:100F5000A140A6958FEF811D811D089597F99F6788
:100F600080E870E060E008959FEF80EC0895002431
:100F70000A941616170618060906089500240A94FE
:100F800012161306140605060895092E0394000C84
:100F900011F4882352F0BB0F40F4BF2B11F460FF13
:100FA00004C06F5F7F4F8F4F9F4F089557FD90583C
:100FB000440F551F59F05F3F71F04795880F97FB1D
:100FC000991F61F09F3F79F08795089512161306D7
:100FD0001406551FF2CF4695F1DF08C01616170606
:100FE0001806991FF1CF869571056105089408953B
:100FF000E894BB2766277727CB0197F908958ADF06
:1010000008F48FEF08950EF0A6C0AECF6894A6CF77
:10101000D5DFC8F39923D1F3C6F3DF93CF931F93A2
:101020000F93FF92C92FDD2788232AF02197660F9F
:10103000771F881FDAF720E030E040E85FEB9FE39E
:10104000883920F0803E30F021968F772ADEE4EA5E
:10105000F0E003C026DEE1EDF0E08BD08B01BE01B5
:10106000EC01FB2E6F5771097595771F880B990B53
:1010700016DF28E132E741E35FE316D0AF2D980198
:10108000AE01FF900F911F91CF91DF911BDE7DCFBD
:101090000BD07BCF6CDF28F071DF18F0952309F0BF
:1010A0005DCF62CF1124A5CF81DFA0F3959FD1F34F
:1010B000950F50E0551F629FF001729FBB27F00D06
:1010C000B11D639FAA27F00DB11DAA1F649F66275B
:1010D000B00DA11D661F829F2227B00DA11D621FAA
:1010E000739FB00DA11D621F839FA00D611D221F64
:1010F000749F3327A00D611D231F849F600D211D48
:10110000822F762F6A2F11249F5750408AF0E1F0EA
:1011100088234AF0EE0FFF1FBB1F661F771F881F33
:1011200091505040A9F79E3F510570F017CF61CF05
:101130005F3FECF3983EDCF3869577956795B7951E
:10114000F795E7959F5FC1F7FE2B880F911D969548
:10115000879597F908959F3F31F0915020F4879536
:1011600077956795B795880F911D9695879597F90F
:101170000895DF93CF931F930F93FF92EF92DF9227
:101180007B018C01689405C0DA2EEF018DDFFE0132
:10119000E894A5912591359145915591AEF3EF01D4
:1011A00091DDFE019701A801DA9479F7DF90EF90C5
:1011B000FF900F911F91CF91DF910895AA1BBB1B48
:1011C00051E107C0AA1FBB1FA617B70710F0A61B47
:1011D000B70B881F991F5A95A9F780959095BC0168
:1011E000CD01089597FB092E07260AD077FD04D07C
:1011F000E5DF06D000201AF4709561957F4F0895C1
:0E120000F6F7909581959F4F0895F894FFCFD3
:10120E000A000A004605010A5A5A460202055A5AAF
:00000001FF
