:100000000C9470000C948D000C948D000C948D0059
:100010000C948D000C948D000C948D000C948D002C
:100020000C9426020C948D000C948D000C94F70215
:100030000C948D000C948D000C948D000C948D000C
:100040000C948D000C948D000C948D000C948D00FC
:100050000C948D0031031E0324032A0338033F034D
:1000600046034D0354036403740384039403A403FD
:10007000B403D403E403FE03F403080412041C04D1
:1000800026042B04C40308000000BE922449123E3B
:10009000ABAAAA2ABECDCCCC4C3E00000080BEABA1
:1000A000AAAAAA3E00000000BF000000803F000096
:1000B000000000084178D3BB4387D1133D190E3CA3
:1000C000C3BD4282AD2B3E68EC8276BED98FE1A9DA
:1000D0003E4C80EFFFBE01C4FF7F3F0000000000E8
:1000E00011241FBECFE5D4E0DEBFCDBF10E0A0E6F7
:1000F000B0E0E6E2FEE002C005900D92AA36B1073C
:10010000D9F710E0AAE6B0E001C01D92A338B1070C
:10011000E1F70E9440040C9411070C940000662340
:10012000E1F0E82FF92F70E02FEF3FEFA8E081E03A
:1001300090EA419150E0242735274A2F20FF05C03F
:10014000369527952827392702C03695279541509F
:10015000A9F77F5F761768F302C02FEF3FEF822F7A
:10016000932F0895929AEFE0F7E23197F1F700C0EC
:100170000000462F50E04F5F5F4F60E05D9BFECF79
:10018000FC01E60FF11D20812CB96F5F262F30E0B6
:10019000241735079CF38FE097E20197F1F700C031
:1001A000000092980895CF93DF93CFE6D0E020EF40
:1001B00020936F0020917E00209370008093710047
:1001C00090937200CE0164E00E948F0080937300D0
:1001D00090937400CE0165E00E94B200DF91CF9150
:1001E00008958CB18093750085E090E025E730E0BC
:1001F000FC013196D901A80FB91F4C91E20FF31FF2
:10020000408301974FEF8F3F940791F780917B00D8
:10021000823F21F580917A00813310F180E090E0F7
:1002200066E070E045E750E02DE730E0FB01E81BB9
:10023000F90BE40FF51FA081F901E80FF91FA08366
:1002400001968630910591F78DE790E066E00E9477
:100250008F0021E0009729F020E003C020E001C0DA
:1002600020E0822F08956F927F928F929F92AF929B
:10027000BF92CF92DF92EF92FF920F931F9387B9B5
:10028000369A3699FECF64B175B180E090E00E9455
:1002900059059B01AC0160E070EC8FE794E40E948B
:1002A000C50420E030E040E85FE30E945C04562F84
:1002B000472F382F292F60E070E48CE196E4F32F6C
:1002C000E22F252F342F4F2F5E2F0E94C5040E944E
:1002D00014067B018C01A80197010E945406D62EBA
:1002E000C72EB82EA92E24EC31EB48EC50E40E9426
:1002F00054062AE037E044E454E40E945D043B01E4
:100300004C01C801B70123EC35EF46EF52E40E94DF
:1003100054069B01AC01C401B3010E945C04962EFB
:10032000872E782E692EC801B7012D2D3C2D4B2D1F
:100330005A2D0E9454062DE53DE645E05EE30E94FD
:100340005406E62EF72E082F192F292D382D472D6C
:10035000562DCA01B9012E2D3F2D402F512F0E943D
:100360005C04F62E072F182FE92ED62EC72EB82E96
:10037000A92E20E030E04FE753E40E940B06181648
:1003800064F06F2D702F812F9E2D20E030E0A901A9
:100390000E94C104882364F00FC0DD24CC240F2EFA
:1003A000FFE7BF2EF02D0F2EF3E4AF2EF02D04C08B
:1003B000DD24CC24BB24AA246D2D7C2D8B2D9A2DDD
:1003C0000E942D05862F1F910F91FF90EF90DF90D7
:1003D000CF90BF90AF909F908F907F906F90089537
:1003E000DF92EF92FF920F931F93D62E87B9369A22
:1003F0003699FECF64B175B180E090E00E94590556
:1004000020E030E048EE51E40E9454067B018C016C
:100410006D2D70E0882777FD8095982F0E945B05F1
:100420009B01AC01C801B7010E94540620E030E0F6
:1004300040E05AE30E9454060E942D05862F972F14
:100440001F910F91FF90EF90DF9008951F920F92F0
:100450000FB60F9211242F933F934F935F936F9397
:100460007F938F939F93AF93BF93EF93FF9380916D
:100470006A008F5F80936A0080916A00823009F47D
:1004800079C0833020F4813009F095C007C08330F3
:1004900009F47FC0843109F08EC08AC084E00E94D4
:1004A000330180937C002091600080917C0030E0DB
:1004B000281B31098FEF2C3E380714F42CEE3FEF48
:1004C0002531310514F024E130E040916200E091E3
:1004D0006D0050E0249FC001259F900D349F900D2A
:1004E00011246AE070E00E94EA06E60FED3324F082
:1004F0008CE380936D0007C01E161CF4E0936D0022
:1005000002C010926D00E091610060916300409123
:10051000640050916D00F0E02E9FC0012F9F900D60
:100520003E9F900D1124850F911D552747FD509535
:10053000F901E41BF50B70E0E69FA001E79F500D69
:10054000F69F500D1124840F951F90936C0080939B
:100550006B002093640080916B0090916C0083305D
:10056000910534F080916E00882311F4AB9A2EC06F
:10057000AB982CC083E00E9433018093650090917A
:10058000660080916500981710F4C49A1FC0C49843
:100590001DC080917C00803A38F480917C008823D3
:1005A00019F010926E0012C081E080936E000EC0B0
:1005B00010926A000BC020916A0080916B009091AC
:1005C0006C0030E0821793070CF4AB98FF91EF9129
:1005D000BF91AF919F918F917F916F915F914F915B
:1005E0003F912F910F900FBE0F901F9018951F9263
:1005F0000F920FB60F9211242F933F934F935F9357
:100600006F937F938F939F93AF93BF93EF93FF93DA
:100610000E94F100882309F422C180917E0090E0BD
:10062000C1978931910508F01AC1865D9F4FFC0181
:10063000EE0FFF1F0590F491E02D099480917C004E
:1006400090E00E94D3000BC18091650090E00E9471
:10065000D30005C182E00E94330190E00E94D300E4
:10066000FEC085E06AEF0E94F0010E94D300F7C04F
:1006700081E064E60E94F0010E94D300F0C080E0B7
:1006800064E60E94F0010E94D300E9C087E06AE0BE
:100690000E94F0010E94D300E2C086E06AEF0E944F
:1006A000F0010E94D300DBC080917F00882331F0ED
:1006B000AA9A81E090E00E94D300D1C0AA9880E07D
:1006C00090E00E94D300CBC080917F00882331F05E
:1006D000A99A81E090E00E94D300C1C0A99880E06F
:1006E00090E00E94D300BBC080917F00882331F04E
:1006F000949A81E090E00E94D300B1C0949880E089
:1007000090E00E94D300ABC080917F00882331F03D
:10071000959A81E090E00E94D300A1C0959880E076
:1007200090E00E94D3009BC080917F00882331F02D
:10073000C49A81E090E00E94D30091C0C49880E008
:1007400090E00E94D3008BC080917F00882331F01D
:10075000939A81E090E00E94D30081C0939880E05A
:1007600090E00E94D3007BC080917F00882331F00D
:10077000969A81E090E00E94D30071C0969880E044
:1007800090E00E94D3006BC080917F00882331F0FD
:10079000AC9A81E090E00E94D30061C0AC9880E008
:1007A00090E00E94D3005BC080917F00882331F0ED
:1007B000979A81E090E00E94D30051C0979880E022
:1007C00090E00E94D3004BC080917F00882331F0DD
:1007D000A89A81E090E00E94D30041C0A89880E0F0
:1007E00090E00E94D3003BC080917F008093660020
:1007F0008091660090E00E94D30031C080917F001C
:10080000809360008091600090E00E94D30027C038
:1008100080917F00809361008091610090E00E9450
:10082000D3001DC080917F008093620080916200A0
:1008300090E00E94D30013C080917F0080936300FA
:100840008091630090E00E94D30009C085EB90E0A6
:100850000E94D30004C080E190E00E94D300FF9189
:10086000EF91BF91AF919F918F917F916F915F9128
:100870004F913F912F910F900FBE0F901F901895A1
:1008800080E187BB8FE184BB8CEF81BB87E886B9B1
:1008900089E189B988E98AB986E880BD84E089BFA1
:1008A0001DBC1CBC82E08EBD78948FE19EE4019754
:1008B000F1F700C00000F9CF5058BB27AA270ED08F
:1008C00070C161D130F066D120F031F49F3F11F456
:1008D0001EF456C10EF4E095E7FB4CC1E92F72D12E
:1008E00080F3BA17620773078407950718F071F44D
:1008F0009EF58AC10EF4E0950B2EBA2FA02D0B01A8
:10090000B90190010C01CA01A0011124FF27591B54
:1009100099F0593F50F4503E68F11A16F040A22F5A
:10092000232F342F4427585FF3CF469537952795CB
:10093000A795F0405395C9F77EF41F16BA0B620BCA
:10094000730B840BBAF09150A1F0FF0FBB1F661F11
:10095000771F881FC2F70EC0BA0F621F731F841F54
:1009600048F4879577956795B795F7959E3F08F07A
:10097000B3CF9395880F08F09927EE0F9795879539
:100980000895D4D008F481E008950CD00AC102D1B2
:1009900040F0F9D030F021F45F3F19F0EBC0511175
:1009A00034C1EEC00FD198F39923C9F35523B1F3A5
:1009B000951B550BBB27AA2762177307840738F0CE
:1009C0009F5F5F4F220F331F441FAA1FA9F333D02D
:1009D0000E2E3AF0E0E830D091505040E695001CE1
:1009E000CAF729D0FE2F27D0660F771F881FBB1F9D
:1009F000261737074807AB07B0E809F0BB0B802D77
:100A0000BF01FF2793585F4F2AF09E3F510568F0C2
:100A1000B1C0FBC05F3FECF3983EDCF38695779561
:100A20006795B795F7959F5FC9F7880F911D9695C4
:100A3000879597F90895E1E0660F771F881FBB1F20
:100A4000621773078407BA0720F0621B730B840BCD
:100A5000BA0BEE1F88F7E0950895BCD088F09F5739
:100A600090F0B92F9927B751A0F0D1F0660F771FFA
:100A7000881F991F1AF0BA95C9F712C0B13081F0DA
:100A8000C3D0B1E00895C0C0672F782F8827B85F22
:100A900039F0B93FCCF3869577956795B395D9F73B
:100AA0003EF490958095709561957F4F8F4F9F4F45
:100AB0000895E89409C097FB3EF490958095709551
:100AC00061957F4F8F4F9F4F9923A9F0F92F96E99A
:100AD000BB279395F695879577956795B795F1110F
:100AE000F8CFFAF4BB0F11F460FF1BC06F5F7F4FAC
:100AF0008F4F9F4F16C0882311F096E911C07723BE
:100B000021F09EE8872F762F05C0662371F096E8C6
:100B1000862F70E060E02AF09A95660F771F881F95
:100B2000DAF7880F9695879597F90895990F000839
:100B3000550FAA0BE0E8FEEF16161706E807F907AF
:100B4000C0F012161306E407F50798F0621B730B4A
:100B5000840B950B39F40A2661F0232B242B252BCB
:100B600021F408950A2609F4A140A6958FEF811D6E
:100B7000811D089597F99F6780E870E060E008950F
:100B80009FEF80EC089500240A94161617061806A5
:100B90000906089500240A94121613061406050681
:100BA0000895092E0394000C11F4882352F0BB0F12
:100BB00040F4BF2B11F460FF04C06F5F7F4F8F4F75
:100BC0009F4F089557FD9058440F551F59F05F3FB0
:100BD00071F04795880F97FB991F61F09F3F79F05F
:100BE00087950895121613061406551FF2CF4695E1
:100BF000F1DF08C0161617061806991FF1CF869563
:100C00007105610508940895E894BB276627772746
:100C1000CB0197F908958ADF08F48FEF08950EF05D
:100C2000A6C0AECF6894A6CFD5DFC8F39923D1F381
:100C3000C6F3DF93CF931F930F93FF92C92FDD2746
:100C400088232AF02197660F771F881FDAF720E0A4
:100C500030E040E85FEB9FE3883920F0803E30F0E1
:100C600021968F772ADEE6E8F0E003C026DEE3EB8C
:100C7000F0E08BD08B01BE01EC01FB2E6F577109A8
:100C80007595771F880B990B16DF28E132E741E352
:100C90005FE316D0AF2D9801AE01FF900F911F9129
:100CA000CF91DF911BDE7DCF0BD07BCF6CDF28F0A7
:100CB00071DF18F0952309F05DCF62CF1124A5CF25
:100CC00081DFA0F3959FD1F3950F50E0551F629FF0
:100CD000F001729FBB27F00DB11D639FAA27F00D95
:100CE000B11DAA1F649F6627B00DA11D661F829FBC
:100CF0002227B00DA11D621F739FB00DA11D621FA1
:100D0000839FA00D611D221F749F3327A00D611DBD
:100D1000231F849F600D211D822F762F6A2F11249F
:100D20009F5750408AF0E1F088234AF0EE0FFF1FF2
:100D3000BB1F661F771F881F91505040A9F79E3F29
:100D4000510570F017CF61CF5F3FECF3983EDCF3B5
:100D5000869577956795B795F795E7959F5FC1F766
:100D6000FE2B880F911D9695879597F908959F3FC3
:100D700031F0915020F4879577956795B795880F56
:100D8000911D9695879597F90895DF93CF931F93BB
:100D90000F93FF92EF92DF927B018C01689405C064
:100DA000DA2EEF018DDFFE01E894A59125913591B2
:100DB00045915591AEF3EF0191DDFE019701A80138
:100DC000DA9479F7DF90EF90FF900F911F91CF9118
:100DD000DF91089597FB092E07260AD077FD04D0EE
:100DE0000CD006D000201AF4709561957F4F0895BD
:100DF000F6F7909581959F4F0895AA1BBB1B51E173
:100E000007C0AA1FBB1FA617B70710F0A61BB70B7A
:100E1000881F991F5A95A9F780959095BC01CD011F
:060E20000895F894FFCFD5
:0A0E26005A050202465A5A5A5A00B1
:00000001FF
