:100000000C9470000C948D000C948D000C948D0059
:100010000C948D000C948D000C948D000C948D002C
:100020000C9442020C948D000C948D000C941403DB
:100030000C948D000C948D000C948D000C948D000C
:100040000C948D000C948D000C948D000C948D00FC
:100050000C948D004E033B034103470355035C039F
:1000600063036A03710381039103A103B103C10315
:10007000D103F10303041D041304270431043B04DA
:1000800045044A04E10308000000BE922449123EE0
:10009000ABAAAA2ABECDCCCC4C3E00000080BEABA1
:1000A000AAAAAA3E00000000BF000000803F000096
:1000B000000000084178D3BB4387D1133D190E3CA3
:1000C000C3BD4282AD2B3E68EC8276BED98FE1A9DA
:1000D0003E4C80EFFFBE01C4FF7F3F0000000000E8
:1000E00011241FBECFE5D4E0DEBFCDBF10E0A0E6F7
:1000F000B0E0E4E6FEE002C005900D92AA36B1073A
:10010000D9F710E0AAE6B0E001C01D92A338B1070C
:10011000E1F70E945F040C9430070C940000662302
:10012000E1F0E82FF92F70E08FEF9FEFA8E041E0BA
:1001300050EA219130E0822793272A2F80FF05C0C3
:10014000969587958427952702C096958795215087
:10015000A9F77F5F761769F708958FEF9FEF0895EE
:10016000929AEFE0F7E23197F1F700C00000262FF6
:1001700030E02F5F3F4F60E05D9BFECFFC01E60F5C
:10018000F11D40814CB96F5F462F50E04217530775
:100190009CF38FE097E20197F1F700C0000092987E
:1001A0000895CF93DF93CFE6D0E020EF20936F0048
:1001B00020917E00209370008093710090937200D4
:1001C000CE0164E00E948F008093730090937400CE
:1001D000CE0165E00E94B000DF91CF9108958CB10F
:1001E0008093750085E090E045E750E09C012F5F2B
:1001F0003F4FFA01E80FF91F6081240F351FF90105
:1002000060830197FFEF8F3F9F0781F780917B000D
:10021000823F21F580917A00813310F180E090E0F7
:1002200026E030E045E750E06DE770E0F901E81BBB
:10023000F90BE40FF51FA081FB01E80FF91FA08364
:1002400001968630910591F78DE790E066E00E9477
:100250008F0021E0009729F020E003C020E001C0DA
:1002600020E0822F08958F929F92AF92BF92CF92FB
:10027000DF92EF92FF920F931F93CF93DF9387B993
:10028000369A3699FECF64B175B180E090E00E9455
:1002900078059B01AC0160E070EC8FE794E40E946C
:1002A000E40420E030E040E85FE30E947B04B62FE6
:1002B000A72F382F292F60E070E48CE196E4422FBD
:1002C0000B2F1A2F232F342FA90198010E94E40429
:1002D000462F572F682F792FCB01BA010E94330682
:1002E0006B017C01A70196010E947306C62FD72FD0
:1002F000182F092F862F9D2FA12FB02FBC01CD01C4
:1003000024EC31EB48EC50E40E9473062AE037E01D
:1003100044E454E40E947C044B015C01C701B60133
:1003200023EC35EF46EF52E40E9473069B01AC01CB
:10033000C501B4010E947B04B62EA72E882E992EEB
:10034000C701B601512F402F0C2F1D2F252F342F01
:10035000A90198010E9473062DE53DE645E05EE3A4
:100360000E947306B62FA72F382F292F4B2D5A2DF9
:10037000682D792DCB01BA01422F0B2F1A2F232F75
:10038000342FA90198010E947B04162FD72FC82E65
:10039000C92FF62E072FE82ED92E862F9D2FAC2D94
:1003A000BC2FBC01CD0120E030E04FE753E40E94B8
:1003B0002A06181674F0812F9D2FAC2DBC2FBC017E
:1003C000CD0120E030E0A9010E94E004882364F020
:1003D0000FC0FF2400E00F2EFFE7EF2EF02D0F2EB1
:1003E000F3E4DF2EF02D04C0FF2400E0EE24DD2432
:1003F0008F2D902FAE2DBD2DBC01CD010E944C053F
:10040000862FDF91CF911F910F91FF90EF90DF909A
:10041000CF90BF90AF909F908F900895CF92DF9232
:10042000EF92FF92CF93C62F87B9369A3699FECFB7
:1004300064B175B180E090E00E94780520E030E082
:1004400048EE51E40E9473066B017C016C2F70E052
:1004500080E090E00E947A059B01AC01C701B601E3
:100460000E94730620E030E040E05AE30E947306E9
:100470000E944C05862F972FCF91FF90EF90DF9031
:10048000CF9008951F920F920FB60F9211242F93C1
:100490003F934F935F936F937F938F939F93AF930C
:1004A000BF93EF93FF9380916E008F5F80936E00F8
:1004B00080916E00823009F47AC0833020F481305C
:1004C00009F096C007C0833009F480C0843109F078
:1004D0008FC08BC084E00E94330180937C00E09148
:1004E000680080917C00F0E0E81BF1092FEFEC3E02
:1004F000F20714F4ECEEFFEFE531F10514F0E4E15E
:10050000F0E02091660040916B0030E02E9FC0012A
:100510002F9F900D3E9F900D11246AE070E00E9485
:100520000907460F4D3324F08CE380936B0007C01E
:1005300014161CF440936B0002C010926B002091C3
:100540006700409165008091640060916B0030E02D
:100550002E9FD0012F9FB00D3E9FB00D112450E073
:10056000992787FD90959F01281B390BC901489F4A
:100570009001499F300D589F300D11242A0F3B1FC9
:10058000260F311D30936D0020936C00E0936400C2
:1005900080916C0090916D008330910534F08091D2
:1005A0006A00882311F4AB9A2EC0AB982CC083E06C
:1005B0000E943301809363009091620080916300F8
:1005C000981710F4C49A1FC0C4981DC080917C0075
:1005D000803A38F480917C00882319F010926A00E8
:1005E00012C081E080936A000EC010926E000BC0B2
:1005F00020916E0080916C0090916D0030E0821728
:1006000093070CF4AB98FF91EF91BF91AF919F913D
:100610008F917F916F915F914F913F912F910F90AB
:100620000FBE0F901F9018951F920F920FB60F924A
:1006300011242F933F934F935F936F937F938F93E7
:100640009F93AF93BF93EF93FF930E94EF00882394
:1006500009F424C180917E0090E0C1978931910511
:1006600008F01CC1865D9F4FFC01EE0FFF1F059037
:10067000F491E02D099480917C0090E00E94D100DB
:100680000DC18091630090E00E94D10007C182E01B
:100690000E94330190E00E94D10000C185E06AEF22
:1006A0000E940E020E94D100F9C081E064E60E941F
:1006B0000E020E94D100F2C080E064E60E940E02A9
:1006C0000E94D100EBC087E06AE00E940E020E9407
:1006D000D100E4C086E06AEF0E940E020E94D100C1
:1006E000DDC080917F00882331F0AA9A81E090E0FC
:1006F0000E94D100D3C0AA9880E090E00E94D1006F
:10070000CDC080917F00882331F0A99A81E090E0EC
:100710000E94D100C3C0A99880E090E00E94D1005F
:10072000BDC080917F00882331F0949A81E090E0F1
:100730000E94D100B3C0949880E090E00E94D10064
:10074000ADC080917F00882331F0959A81E090E0E0
:100750000E94D100A3C0959880E090E00E94D10053
:100760009DC080917F00882331F0C49A81E090E0A1
:100770000E94D10093C0C49880E090E00E94D10014
:100780008DC080917F00882331F0939A81E090E0C2
:100790000E94D10083C0939880E090E00E94D10035
:1007A0007DC080917F00882331F0969A81E090E0AF
:1007B0000E94D10073C0969880E090E00E94D10022
:1007C0006DC080917F00882331F0AC9A81E090E089
:1007D0000E94D10063C0AC9880E090E00E94D100FC
:1007E0005DC080917F00882339F0979AAC9A81E0B0
:1007F00090E00E94D10052C09798AC9880E090E0C1
:100800000E94D1004BC080917F00882331F0A89ACC
:1008100081E090E00E94D10041C0A89880E090E083
:100820000E94D1003BC080917F0080936200809144
:10083000620090E00E94D10031C080917F008093DF
:1008400068008091680090E00E94D10027C08091EC
:100850007F00809367008091670090E00E94D10044
:100860001DC080917F00809366008091660090E0BB
:100870000E94D10013C080917F0080936500809119
:10088000650090E00E94D10009C085EB90E00E94D5
:10089000D10004C080E190E00E94D100FF91EF916F
:1008A000BF91AF919F918F917F916F915F914F9188
:1008B0003F912F910F900FBE0F901F90189580E1E0
:1008C00087BB8FE184BB8CEF81BB87E886B989E168
:1008D00089B988E98AB986E880BD84E089BF1DBCF2
:1008E0001CBC82E08EBD78948FE19EE40197F1F705
:1008F00000C00000F9CF5058BB27AA270ED070C106
:1009000061D130F066D120F031F49F3F11F41EF434
:1009100056C10EF4E095E7FB4CC1E92F72D180F38C
:10092000BA17620773078407950718F071F49EF5EC
:100930008AC10EF4E0950B2EBA2FA02D0B01B90140
:1009400090010C01CA01A0011124FF27591B99F045
:10095000593F50F4503E68F11A16F040A22F232F51
:10096000342F4427585FF3CF469537952795A795A1
:10097000F0405395C9F77EF41F16BA0B620B730B48
:10098000840BBAF09150A1F0FF0FBB1F661F771FB9
:10099000881FC2F70EC0BA0F621F731F841F48F46E
:1009A000879577956795B795F7959E3F08F0B3CFF4
:1009B0009395880F08F09927EE0F979587950895DE
:1009C000D4D008F481E008950CD00AC102D140F0DF
:1009D000F9D030F021F45F3F19F0EBC0511134C170
:1009E000EEC00FD198F39923C9F35523B1F3951BAA
:1009F000550BBB27AA2762177307840738F09F5F40
:100A00005F4F220F331F441FAA1FA9F333D00E2EAE
:100A10003AF0E0E830D091505040E695001CCAF71B
:100A200029D0FE2F27D0660F771F881FBB1F2617E0
:100A300037074807AB07B0E809F0BB0B802DBF01B3
:100A4000FF2793585F4F2AF09E3F510568F0B1C0D1
:100A5000FBC05F3FECF3983EDCF386957795679596
:100A6000B795F7959F5FC9F7880F911D9695879564
:100A700097F90895E1E0660F771F881FBB1F621783
:100A800073078407BA0720F0621B730B840BBA0B41
:100A9000EE1F88F7E0950895BCD088F09F5790F03E
:100AA000B92F9927B751A0F0D1F0660F771F881F93
:100AB000991F1AF0BA95C9F712C0B13081F0C3D0AE
:100AC000B1E00895C0C0672F782F8827B85F39F04C
:100AD000B93FCCF3869577956795B395D9F73EF4F2
:100AE00090958095709561957F4F8F4F9F4F08959A
:100AF000E89409C097FB3EF49095809570956195B8
:100B00007F4F8F4F9F4F9923A9F0F92F96E9BB276D
:100B10009395F695879577956795B795F111F8CFE9
:100B2000FAF4BB0F11F460FF1BC06F5F7F4F8F4F54
:100B30009F4F16C0882311F096E911C0772321F04A
:100B40009EE8872F762F05C0662371F096E8862FE2
:100B500070E060E02AF09A95660F771F881FDAF739
:100B6000880F9695879597F90895990F0008550F66
:100B7000AA0BE0E8FEEF16161706E807F907C0F023
:100B800012161306E407F50798F0621B730B840B2B
:100B9000950B39F40A2661F0232B242B252B21F405
:100BA00008950A2609F4A140A6958FEF811D811DA5
:100BB000089597F99F6780E870E060E008959FEFDF
:100BC00080EC089500240A941616170618060906E4
:100BD000089500240A9412161306140605060895B3
:100BE000092E0394000C11F4882352F0BB0F40F43B
:100BF000BF2B11F460FF04C06F5F7F4F8F4F9F4F7B
:100C0000089557FD9058440F551F59F05F3F71F0FC
:100C10004795880F97FB991F61F09F3F79F0879563
:100C20000895121613061406551FF2CF4695F1DFEC
:100C300008C0161617061806991FF1CF869571057C
:100C4000610508940895E894BB2766277727CB01B0
:100C500097F908958ADF08F48FEF08950EF0A6C083
:100C6000AECF6894A6CFD5DFC8F39923D1F3C6F3EE
:100C7000DF93CF931F930F93FF92C92FDD27882314
:100C80002AF02197660F771F881FDAF720E030E0FF
:100C900040E85FEB9FE3883920F0803E30F02196FA
:100CA0008F772ADEE6E8F0E003C026DEE3EBF0E033
:100CB0008BD08B01BE01EC01FB2E6F57710975952E
:100CC000771F880B990B16DF28E132E741E35FE3DA
:100CD00016D0AF2D9801AE01FF900F911F91CF91CB
:100CE000DF911BDE7DCF0BD07BCF6CDF28F071DF77
:100CF00018F0952309F05DCF62CF1124A5CF81DFD5
:100D0000A0F3959FD1F3950F50E0551F629FF0011E
:100D1000729FBB27F00DB11D639FAA27F00DB11D77
:100D2000AA1F649F6627B00DA11D661F829F222700
:100D3000B00DA11D621F739FB00DA11D621F839F87
:100D4000A00D611D221F749F3327A00D611D231F5D
:100D5000849F600D211D822F762F6A2F11249F57AB
:100D600050408AF0E1F088234AF0EE0FFF1FBB1FCE
:100D7000661F771F881F91505040A9F79E3F51056D
:100D800070F017CF61CF5F3FECF3983EDCF38695B0
:100D900077956795B795F795E7959F5FC1F7FE2B18
:100DA000880F911D9695879597F908959F3F31F08B
:100DB000915020F4879577956795B795880F911D89
:100DC0009695879597F90895DF93CF931F930F9387
:100DD000FF92EF92DF927B018C01689405C0DA2EBE
:100DE000EF018DDFFE01E894A591259135914591A4
:100DF0005591AEF3EF0191DDFE019701A801DA9460
:100E000079F7DF90EF90FF900F911F91CF91DF91D5
:100E1000089597FB092E07260AD077FD04D00CD041
:100E200006D000201AF4709561957F4F0895F6F76B
:100E3000909581959F4F0895AA1BBB1B51E107C058
:100E4000AA1FBB1FA617B70710F0A61BB70B881F5A
:100E5000991F5A95A9F780959095BC01CD010895E9
:040E6000F894FFCF34
:0A0E64005A5A5A5A460202055A0073
:00000001FF
